{
  "_format": "hh-sol-artifact-1",
  "contractName": "Artick",
  "sourceName": "contracts/Artick.sol",
  "abi": [
    {
      "inputs": [
        {
          "internalType": "uint256",
          "name": "_feePercent",
          "type": "uint256"
        }
      ],
      "stateMutability": "nonpayable",
      "type": "constructor"
    },
    {
      "anonymous": false,
      "inputs": [
        {
          "indexed": true,
          "internalType": "address",
          "name": "owner",
          "type": "address"
        },
        {
          "indexed": true,
          "internalType": "address",
          "name": "approved",
          "type": "address"
        },
        {
          "indexed": true,
          "internalType": "uint256",
          "name": "tokenId",
          "type": "uint256"
        }
      ],
      "name": "Approval",
      "type": "event"
    },
    {
      "anonymous": false,
      "inputs": [
        {
          "indexed": true,
          "internalType": "address",
          "name": "owner",
          "type": "address"
        },
        {
          "indexed": true,
          "internalType": "address",
          "name": "operator",
          "type": "address"
        },
        {
          "indexed": false,
          "internalType": "bool",
          "name": "approved",
          "type": "bool"
        }
      ],
      "name": "ApprovalForAll",
      "type": "event"
    },
    {
      "anonymous": false,
      "inputs": [
        {
          "indexed": false,
          "internalType": "uint256",
          "name": "TicketId",
          "type": "uint256"
        },
        {
          "indexed": true,
          "internalType": "address",
          "name": "nft",
          "type": "address"
        },
        {
          "indexed": false,
          "internalType": "uint256",
          "name": "tokenId",
          "type": "uint256"
        },
        {
          "indexed": false,
          "internalType": "uint256",
          "name": "price",
          "type": "uint256"
        },
        {
          "indexed": true,
          "internalType": "address",
          "name": "seller",
          "type": "address"
        },
        {
          "indexed": true,
          "internalType": "address",
          "name": "buyer",
          "type": "address"
        }
      ],
      "name": "Bought",
      "type": "event"
    },
    {
      "anonymous": false,
      "inputs": [
        {
          "indexed": false,
          "internalType": "uint256",
          "name": "TicketId",
          "type": "uint256"
        },
        {
          "indexed": true,
          "internalType": "address",
          "name": "nft",
          "type": "address"
        },
        {
          "indexed": false,
          "internalType": "uint256",
          "name": "tokenId",
          "type": "uint256"
        },
        {
          "indexed": false,
          "internalType": "uint256",
          "name": "price",
          "type": "uint256"
        },
        {
          "indexed": true,
          "internalType": "address",
          "name": "seller",
          "type": "address"
        }
      ],
      "name": "OfferedTicket",
      "type": "event"
    },
    {
      "anonymous": false,
      "inputs": [
        {
          "indexed": true,
          "internalType": "address",
          "name": "from",
          "type": "address"
        },
        {
          "indexed": true,
          "internalType": "address",
          "name": "to",
          "type": "address"
        },
        {
          "indexed": true,
          "internalType": "uint256",
          "name": "tokenId",
          "type": "uint256"
        }
      ],
      "name": "Transfer",
      "type": "event"
    },
    {
      "inputs": [
        {
          "internalType": "uint256",
          "name": "",
          "type": "uint256"
        },
        {
          "internalType": "uint256",
          "name": "",
          "type": "uint256"
        }
      ],
      "name": "TicketTaken",
      "outputs": [
        {
          "internalType": "address",
          "name": "",
          "type": "address"
        }
      ],
      "stateMutability": "view",
      "type": "function"
    },
    {
      "inputs": [
        {
          "internalType": "address",
          "name": "to",
          "type": "address"
        },
        {
          "internalType": "uint256",
          "name": "tokenId",
          "type": "uint256"
        }
      ],
      "name": "approve",
      "outputs": [],
      "stateMutability": "nonpayable",
      "type": "function"
    },
    {
      "inputs": [
        {
          "internalType": "address",
          "name": "owner",
          "type": "address"
        }
      ],
      "name": "balanceOf",
      "outputs": [
        {
          "internalType": "uint256",
          "name": "",
          "type": "uint256"
        }
      ],
      "stateMutability": "view",
      "type": "function"
    },
    {
      "inputs": [],
      "name": "feeAccount",
      "outputs": [
        {
          "internalType": "address payable",
          "name": "",
          "type": "address"
        }
      ],
      "stateMutability": "view",
      "type": "function"
    },
    {
      "inputs": [],
      "name": "feePercent",
      "outputs": [
        {
          "internalType": "uint256",
          "name": "",
          "type": "uint256"
        }
      ],
      "stateMutability": "view",
      "type": "function"
    },
    {
      "inputs": [
        {
          "internalType": "uint256",
          "name": "tokenId",
          "type": "uint256"
        }
      ],
      "name": "getApproved",
      "outputs": [
        {
          "internalType": "address",
          "name": "",
          "type": "address"
        }
      ],
      "stateMutability": "view",
      "type": "function"
    },
    {
      "inputs": [
        {
          "internalType": "uint256",
          "name": "_id",
          "type": "uint256"
        }
      ],
      "name": "getOccasion",
      "outputs": [
        {
          "components": [
            {
              "internalType": "uint256",
              "name": "id",
              "type": "uint256"
            },
            {
              "internalType": "string",
              "name": "name",
              "type": "string"
            },
            {
              "internalType": "uint256",
              "name": "cost",
              "type": "uint256"
            },
            {
              "internalType": "uint256",
              "name": "tickets",
              "type": "uint256"
            },
            {
              "internalType": "uint256",
              "name": "maxTickets",
              "type": "uint256"
            },
            {
              "internalType": "string",
              "name": "date",
              "type": "string"
            },
            {
              "internalType": "string",
              "name": "time",
              "type": "string"
            },
            {
              "internalType": "string",
              "name": "location",
              "type": "string"
            },
            {
              "internalType": "string",
              "name": "description",
              "type": "string"
            },
            {
              "internalType": "string",
              "name": "image",
              "type": "string"
            }
          ],
          "internalType": "struct Artick.Occasion",
          "name": "",
          "type": "tuple"
        }
      ],
      "stateMutability": "view",
      "type": "function"
    },
    {
      "inputs": [
        {
          "internalType": "uint256",
          "name": "_occasionId",
          "type": "uint256"
        }
      ],
      "name": "getTicketsForOccasion",
      "outputs": [
        {
          "components": [
            {
              "internalType": "uint256",
              "name": "TicketId",
              "type": "uint256"
            },
            {
              "internalType": "contract IERC721",
              "name": "nft",
              "type": "address"
            },
            {
              "internalType": "uint256",
              "name": "tokenId",
              "type": "uint256"
            },
            {
              "internalType": "uint256",
              "name": "price",
              "type": "uint256"
            },
            {
              "internalType": "uint256",
              "name": "occasionId",
              "type": "uint256"
            },
            {
              "internalType": "address payable",
              "name": "seller",
              "type": "address"
            },
            {
              "internalType": "bool",
              "name": "sold",
              "type": "bool"
            },
            {
              "internalType": "string",
              "name": "image",
              "type": "string"
            }
          ],
          "internalType": "struct Artick.Ticket[]",
          "name": "",
          "type": "tuple[]"
        }
      ],
      "stateMutability": "view",
      "type": "function"
    },
    {
      "inputs": [
        {
          "internalType": "uint256",
          "name": "_id",
          "type": "uint256"
        }
      ],
      "name": "getTicketsTaken",
      "outputs": [
        {
          "internalType": "uint256[]",
          "name": "",
          "type": "uint256[]"
        }
      ],
      "stateMutability": "view",
      "type": "function"
    },
    {
      "inputs": [
        {
          "internalType": "uint256",
          "name": "_TicketId",
          "type": "uint256"
        }
      ],
      "name": "getTotalPrice",
      "outputs": [
        {
          "internalType": "uint256",
          "name": "",
          "type": "uint256"
        }
      ],
      "stateMutability": "view",
      "type": "function"
    },
    {
      "inputs": [
        {
          "internalType": "uint256",
          "name": "",
          "type": "uint256"
        },
        {
          "internalType": "address",
          "name": "",
          "type": "address"
        }
      ],
      "name": "hasBought",
      "outputs": [
        {
          "internalType": "bool",
          "name": "",
          "type": "bool"
        }
      ],
      "stateMutability": "view",
      "type": "function"
    },
    {
      "inputs": [
        {
          "internalType": "address",
          "name": "owner",
          "type": "address"
        },
        {
          "internalType": "address",
          "name": "operator",
          "type": "address"
        }
      ],
      "name": "isApprovedForAll",
      "outputs": [
        {
          "internalType": "bool",
          "name": "",
          "type": "bool"
        }
      ],
      "stateMutability": "view",
      "type": "function"
    },
    {
      "inputs": [
        {
          "internalType": "uint256",
          "name": "_id",
          "type": "uint256"
        },
        {
          "internalType": "string",
          "name": "_name",
          "type": "string"
        },
        {
          "internalType": "uint256",
          "name": "_cost",
          "type": "uint256"
        },
        {
          "internalType": "uint256",
          "name": "_tickets",
          "type": "uint256"
        },
        {
          "internalType": "uint256",
          "name": "_maxTickets",
          "type": "uint256"
        },
        {
          "internalType": "string",
          "name": "_date",
          "type": "string"
        },
        {
          "internalType": "string",
          "name": "_time",
          "type": "string"
        },
        {
          "internalType": "string",
          "name": "_location",
          "type": "string"
        },
        {
          "internalType": "string",
          "name": "_description",
          "type": "string"
        },
        {
          "internalType": "string",
          "name": "_image",
          "type": "string"
        }
      ],
      "name": "listOccasion",
      "outputs": [],
      "stateMutability": "nonpayable",
      "type": "function"
    },
    {
      "inputs": [
        {
          "internalType": "uint256",
          "name": "_TicketId",
          "type": "uint256"
        },
        {
          "internalType": "contract IERC721",
          "name": "_artick",
          "type": "address"
        },
        {
          "internalType": "uint256",
          "name": "_tokenId",
          "type": "uint256"
        },
        {
          "internalType": "uint256",
          "name": "_price",
          "type": "uint256"
        },
        {
          "internalType": "uint256",
          "name": "_occasionId",
          "type": "uint256"
        },
        {
          "internalType": "address",
          "name": "_seller",
          "type": "address"
        },
        {
          "internalType": "bool",
          "name": "_sold",
          "type": "bool"
        },
        {
          "internalType": "string",
          "name": "_image",
          "type": "string"
        }
      ],
      "name": "makeTicket",
      "outputs": [],
      "stateMutability": "nonpayable",
      "type": "function"
    },
    {
      "inputs": [
        {
          "internalType": "uint256",
          "name": "_TicketId",
          "type": "uint256"
        },
        {
          "internalType": "uint256",
          "name": "_ticket",
          "type": "uint256"
        },
        {
          "internalType": "uint256",
          "name": "_tokenId",
          "type": "uint256"
        }
      ],
      "name": "mint",
      "outputs": [],
      "stateMutability": "payable",
      "type": "function"
    },
    {
      "inputs": [],
      "name": "name",
      "outputs": [
        {
          "internalType": "string",
          "name": "",
          "type": "string"
        }
      ],
      "stateMutability": "view",
      "type": "function"
    },
    {
      "inputs": [],
      "name": "owner",
      "outputs": [
        {
          "internalType": "address",
          "name": "",
          "type": "address"
        }
      ],
      "stateMutability": "view",
      "type": "function"
    },
    {
      "inputs": [
        {
          "internalType": "uint256",
          "name": "tokenId",
          "type": "uint256"
        }
      ],
      "name": "ownerOf",
      "outputs": [
        {
          "internalType": "address",
          "name": "",
          "type": "address"
        }
      ],
      "stateMutability": "view",
      "type": "function"
    },
    {
      "inputs": [
        {
          "internalType": "uint256",
          "name": "_TicketId",
          "type": "uint256"
        }
      ],
      "name": "purchaseTicket",
      "outputs": [],
      "stateMutability": "payable",
      "type": "function"
    },
    {
      "inputs": [
        {
          "internalType": "address",
          "name": "from",
          "type": "address"
        },
        {
          "internalType": "address",
          "name": "to",
          "type": "address"
        },
        {
          "internalType": "uint256",
          "name": "tokenId",
          "type": "uint256"
        }
      ],
      "name": "safeTransferFrom",
      "outputs": [],
      "stateMutability": "nonpayable",
      "type": "function"
    },
    {
      "inputs": [
        {
          "internalType": "address",
          "name": "from",
          "type": "address"
        },
        {
          "internalType": "address",
          "name": "to",
          "type": "address"
        },
        {
          "internalType": "uint256",
          "name": "tokenId",
          "type": "uint256"
        },
        {
          "internalType": "bytes",
          "name": "data",
          "type": "bytes"
        }
      ],
      "name": "safeTransferFrom",
      "outputs": [],
      "stateMutability": "nonpayable",
      "type": "function"
    },
    {
      "inputs": [
        {
          "internalType": "uint256",
          "name": "_tokenId",
          "type": "uint256"
        },
        {
          "internalType": "uint256",
          "name": "_newPrice",
          "type": "uint256"
        },
        {
          "components": [
            {
              "internalType": "uint256",
              "name": "TicketId",
              "type": "uint256"
            },
            {
              "internalType": "contract IERC721",
              "name": "nft",
              "type": "address"
            },
            {
              "internalType": "uint256",
              "name": "tokenId",
              "type": "uint256"
            },
            {
              "internalType": "uint256",
              "name": "price",
              "type": "uint256"
            },
            {
              "internalType": "uint256",
              "name": "occasionId",
              "type": "uint256"
            },
            {
              "internalType": "address payable",
              "name": "seller",
              "type": "address"
            },
            {
              "internalType": "bool",
              "name": "sold",
              "type": "bool"
            },
            {
              "internalType": "string",
              "name": "image",
              "type": "string"
            }
          ],
          "internalType": "struct Artick.Ticket",
          "name": "ticket",
          "type": "tuple"
        }
      ],
      "name": "sellTicket",
      "outputs": [],
      "stateMutability": "nonpayable",
      "type": "function"
    },
    {
      "inputs": [
        {
          "internalType": "address",
          "name": "operator",
          "type": "address"
        },
        {
          "internalType": "bool",
          "name": "approved",
          "type": "bool"
        }
      ],
      "name": "setApprovalForAll",
      "outputs": [],
      "stateMutability": "nonpayable",
      "type": "function"
    },
    {
      "inputs": [
        {
          "internalType": "bytes4",
          "name": "interfaceId",
          "type": "bytes4"
        }
      ],
      "name": "supportsInterface",
      "outputs": [
        {
          "internalType": "bool",
          "name": "",
          "type": "bool"
        }
      ],
      "stateMutability": "view",
      "type": "function"
    },
    {
      "inputs": [],
      "name": "symbol",
      "outputs": [
        {
          "internalType": "string",
          "name": "",
          "type": "string"
        }
      ],
      "stateMutability": "view",
      "type": "function"
    },
    {
      "inputs": [
        {
          "internalType": "uint256",
          "name": "",
          "type": "uint256"
        }
      ],
      "name": "tickets",
      "outputs": [
        {
          "internalType": "uint256",
          "name": "TicketId",
          "type": "uint256"
        },
        {
          "internalType": "contract IERC721",
          "name": "nft",
          "type": "address"
        },
        {
          "internalType": "uint256",
          "name": "tokenId",
          "type": "uint256"
        },
        {
          "internalType": "uint256",
          "name": "price",
          "type": "uint256"
        },
        {
          "internalType": "uint256",
          "name": "occasionId",
          "type": "uint256"
        },
        {
          "internalType": "address payable",
          "name": "seller",
          "type": "address"
        },
        {
          "internalType": "bool",
          "name": "sold",
          "type": "bool"
        },
        {
          "internalType": "string",
          "name": "image",
          "type": "string"
        }
      ],
      "stateMutability": "view",
      "type": "function"
    },
    {
      "inputs": [
        {
          "internalType": "uint256",
          "name": "tokenId",
          "type": "uint256"
        }
      ],
      "name": "tokenURI",
      "outputs": [
        {
          "internalType": "string",
          "name": "",
          "type": "string"
        }
      ],
      "stateMutability": "view",
      "type": "function"
    },
    {
      "inputs": [],
      "name": "totalOccasions",
      "outputs": [
        {
          "internalType": "uint256",
          "name": "",
          "type": "uint256"
        }
      ],
      "stateMutability": "view",
      "type": "function"
    },
    {
      "inputs": [],
      "name": "totalSupply",
      "outputs": [
        {
          "internalType": "uint256",
          "name": "",
          "type": "uint256"
        }
      ],
      "stateMutability": "view",
      "type": "function"
    },
    {
      "inputs": [
        {
          "internalType": "address",
          "name": "from",
          "type": "address"
        },
        {
          "internalType": "address",
          "name": "to",
          "type": "address"
        },
        {
          "internalType": "uint256",
          "name": "tokenId",
          "type": "uint256"
        }
      ],
      "name": "transferFrom",
      "outputs": [],
      "stateMutability": "nonpayable",
      "type": "function"
    },
    {
      "inputs": [],
      "name": "withdraw",
      "outputs": [],
      "stateMutability": "nonpayable",
      "type": "function"
    }
  ],
  "bytecode": "0x60c06040523480156200001157600080fd5b50604051620058683803806200586883398181016040528101906200003791906200018d565b6040518060400160405280600681526020017f41727469636b00000000000000000000000000000000000000000000000000008152506040518060400160405280600381526020017f41544b00000000000000000000000000000000000000000000000000000000008152508160009081620000b491906200042f565b508060019081620000c691906200042f565b50505033600660006101000a81548173ffffffffffffffffffffffffffffffffffffffff021916908373ffffffffffffffffffffffffffffffffffffffff1602179055503373ffffffffffffffffffffffffffffffffffffffff1660808173ffffffffffffffffffffffffffffffffffffffff16815250508060a081815250505062000516565b600080fd5b6000819050919050565b620001678162000152565b81146200017357600080fd5b50565b60008151905062000187816200015c565b92915050565b600060208284031215620001a657620001a56200014d565b5b6000620001b68482850162000176565b91505092915050565b600081519050919050565b7f4e487b7100000000000000000000000000000000000000000000000000000000600052604160045260246000fd5b7f4e487b7100000000000000000000000000000000000000000000000000000000600052602260045260246000fd5b600060028204905060018216806200024157607f821691505b602082108103620002575762000256620001f9565b5b50919050565b60008190508160005260206000209050919050565b60006020601f8301049050919050565b600082821b905092915050565b600060088302620002c17fffffffffffffffffffffffffffffffffffffffffffffffffffffffffffffffff8262000282565b620002cd868362000282565b95508019841693508086168417925050509392505050565b6000819050919050565b6000620003106200030a620003048462000152565b620002e5565b62000152565b9050919050565b6000819050919050565b6200032c83620002ef565b620003446200033b8262000317565b8484546200028f565b825550505050565b600090565b6200035b6200034c565b6200036881848462000321565b505050565b5b8181101562000390576200038460008262000351565b6001810190506200036e565b5050565b601f821115620003df57620003a9816200025d565b620003b48462000272565b81016020851015620003c4578190505b620003dc620003d38562000272565b8301826200036d565b50505b505050565b600082821c905092915050565b60006200040460001984600802620003e4565b1980831691505092915050565b60006200041f8383620003f1565b9150826002028217905092915050565b6200043a82620001bf565b67ffffffffffffffff811115620004565762000455620001ca565b5b62000462825462000228565b6200046f82828562000394565b600060209050601f831160018114620004a7576000841562000492578287015190505b6200049e858262000411565b8655506200050e565b601f198416620004b7866200025d565b60005b82811015620004e157848901518255600182019150602085019450602081019050620004ba565b86831015620005015784890151620004fd601f891682620003f1565b8355505b6001600288020188555050505b505050505050565b60805160a05161531e6200054a600039600081816119ad015261209001526000818161121f0152611e23015261531e6000f3fe6080604052600436106101d85760003560e01c806370a0823111610102578063a22cb46511610095578063c87b56dd11610064578063c87b56dd146106cd578063ca7dd3751461070a578063e4f84f4514610747578063e985e9c514610784576101d8565b8063a22cb46514610636578063b519ad7f1461065f578063b88d4fde14610688578063b948348c146106b1576101d8565b80638da5cb5b116100d15780638da5cb5b14610578578063953865c1146105a357806395d89b41146105ce5780639cb04aef146105f9576101d8565b806370a08231146104aa57806374bc8656146104e757806376a717eb146105245780637fd6f15c1461054d576101d8565b806323b872dd1161017a57806342842e0e1161014957806342842e0e146103d557806350b44712146103fe5780636352211e1461044257806365e17c9d1461047f576101d8565b806323b872dd1461031b578063350e957f146103445780633ccfd60b146103815780633e84a97a14610398576101d8565b8063081812fc116101b6578063081812fc14610261578063095ea7b31461029e57806314200949146102c757806318160ddd146102f0576101d8565b806301ffc9a7146101dd57806302acc94b1461021a57806306fdde0314610236575b600080fd5b3480156101e957600080fd5b5061020460048036038101906101ff9190613397565b6107c1565b60405161021191906133df565b60405180910390f35b610234600480360381019061022f9190613430565b6108a3565b005b34801561024257600080fd5b5061024b610ad9565b6040516102589190613513565b60405180910390f35b34801561026d57600080fd5b5061028860048036038101906102839190613535565b610b6b565b60405161029591906135a3565b60405180910390f35b3480156102aa57600080fd5b506102c560048036038101906102c091906135ea565b610bb1565b005b3480156102d357600080fd5b506102ee60048036038101906102e9919061375f565b610cc8565b005b3480156102fc57600080fd5b50610305610e52565b60405161031291906138f5565b60405180910390f35b34801561032757600080fd5b50610342600480360381019061033d9190613910565b610e58565b005b34801561035057600080fd5b5061036b60048036038101906103669190613963565b610eb8565b60405161037891906135a3565b60405180910390f35b34801561038d57600080fd5b50610396610efa565b005b3480156103a457600080fd5b506103bf60048036038101906103ba9190613535565b610fef565b6040516103cc9190613a61565b60405180910390f35b3480156103e157600080fd5b506103fc60048036038101906103f79190613910565b61105a565b005b34801561040a57600080fd5b5061042560048036038101906104209190613535565b61107a565b604051610439989796959493929190613b03565b60405180910390f35b34801561044e57600080fd5b5061046960048036038101906104649190613535565b611197565b60405161047691906135a3565b60405180910390f35b34801561048b57600080fd5b5061049461121d565b6040516104a19190613b88565b60405180910390f35b3480156104b657600080fd5b506104d160048036038101906104cc9190613ba3565b611241565b6040516104de91906138f5565b60405180910390f35b3480156104f357600080fd5b5061050e60048036038101906105099190613535565b6112f8565b60405161051b9190613d17565b60405180910390f35b34801561053057600080fd5b5061054b60048036038101906105469190613da3565b6116ba565b005b34801561055957600080fd5b506105626119ab565b60405161056f91906138f5565b60405180910390f35b34801561058457600080fd5b5061058d6119cf565b60405161059a91906135a3565b60405180910390f35b3480156105af57600080fd5b506105b86119f5565b6040516105c591906138f5565b60405180910390f35b3480156105da57600080fd5b506105e36119fb565b6040516105f09190613513565b60405180910390f35b34801561060557600080fd5b50610620600480360381019061061b9190613e75565b611a8d565b60405161062d91906133df565b60405180910390f35b34801561064257600080fd5b5061065d60048036038101906106589190613eb5565b611abc565b005b34801561066b57600080fd5b5061068660048036038101906106819190614011565b611ad2565b005b34801561069457600080fd5b506106af60048036038101906106aa9190614121565b611c46565b005b6106cb60048036038101906106c69190613535565b611ca8565b005b3480156106d957600080fd5b506106f460048036038101906106ef9190613535565b612022565b6040516107019190613513565b60405180910390f35b34801561071657600080fd5b50610731600480360381019061072c9190613535565b61208a565b60405161073e91906138f5565b60405180910390f35b34801561075357600080fd5b5061076e60048036038101906107699190613535565b6120ed565b60405161077b9190614343565b60405180910390f35b34801561079057600080fd5b506107ab60048036038101906107a69190614365565b612403565b6040516107b891906133df565b60405180910390f35b60007f80ac58cd000000000000000000000000000000000000000000000000000000007bffffffffffffffffffffffffffffffffffffffffffffffffffffffff1916827bffffffffffffffffffffffffffffffffffffffffffffffffffffffff1916148061088c57507f5b5e139f000000000000000000000000000000000000000000000000000000007bffffffffffffffffffffffffffffffffffffffffffffffffffffffff1916827bffffffffffffffffffffffffffffffffffffffffffffffffffffffff1916145b8061089c575061089b82612497565b5b9050919050565b600083036108b057600080fd5b6008548311156108bf57600080fd5b600b6000848152602001908152602001600020600201543410156108e257600080fd5b600073ffffffffffffffffffffffffffffffffffffffff16600c6000858152602001908152602001600020600084815260200190815260200160002060009054906101000a900473ffffffffffffffffffffffffffffffffffffffff1673ffffffffffffffffffffffffffffffffffffffff161461095f57600080fd5b6001600b6000858152602001908152602001600020600301600082825461098691906143d4565b925050819055506001600e600085815260200190815260200160002060003373ffffffffffffffffffffffffffffffffffffffff1673ffffffffffffffffffffffffffffffffffffffff16815260200190815260200160002060006101000a81548160ff02191690831515021790555033600c6000858152602001908152602001600020600084815260200190815260200160002060006101000a81548173ffffffffffffffffffffffffffffffffffffffff021916908373ffffffffffffffffffffffffffffffffffffffff160217905550600d600084815260200190815260200160002082908060018154018082558091505060019003906000526020600020016000909190919091505582600a600060095481526020019081526020016000206000018190555060096000815480929190610ac390614408565b9190505550610ad433600954612501565b505050565b606060008054610ae89061447f565b80601f0160208091040260200160405190810160405280929190818152602001828054610b149061447f565b8015610b615780601f10610b3657610100808354040283529160200191610b61565b820191906000526020600020905b815481529060010190602001808311610b4457829003601f168201915b5050505050905090565b6000610b768261251f565b6004600083815260200190815260200160002060009054906101000a900473ffffffffffffffffffffffffffffffffffffffff169050919050565b6000610bbc82611197565b90508073ffffffffffffffffffffffffffffffffffffffff168373ffffffffffffffffffffffffffffffffffffffff1603610c2c576040517f08c379a0000000000000000000000000000000000000000000000000000000008152600401610c2390614522565b60405180910390fd5b8073ffffffffffffffffffffffffffffffffffffffff16610c4b61256a565b73ffffffffffffffffffffffffffffffffffffffff161480610c7a5750610c7981610c7461256a565b612403565b5b610cb9576040517f08c379a0000000000000000000000000000000000000000000000000000000008152600401610cb0906145b4565b60405180910390fd5b610cc38383612572565b505050565b600660009054906101000a900473ffffffffffffffffffffffffffffffffffffffff1673ffffffffffffffffffffffffffffffffffffffff163373ffffffffffffffffffffffffffffffffffffffff1614610d2257600080fd5b60086000815480929190610d3590614408565b91905055506040518061014001604052808b81526020018a815260200189815260200188815260200187815260200186815260200185815260200184815260200183815260200182815250600b60006008548152602001908152602001600020600082015181600001556020820151816001019081610db49190614776565b5060408201518160020155606082015181600301556080820151816004015560a0820151816005019081610de89190614776565b5060c0820151816006019081610dfe9190614776565b5060e0820151816007019081610e149190614776565b50610100820151816008019081610e2b9190614776565b50610120820151816009019081610e429190614776565b5090505050505050505050505050565b60095481565b610e69610e6361256a565b8261262b565b610ea8576040517f08c379a0000000000000000000000000000000000000000000000000000000008152600401610e9f906148ba565b60405180910390fd5b610eb38383836126c0565b505050565b600c6020528160005260406000206020528060005260406000206000915091509054906101000a900473ffffffffffffffffffffffffffffffffffffffff1681565b600660009054906101000a900473ffffffffffffffffffffffffffffffffffffffff1673ffffffffffffffffffffffffffffffffffffffff163373ffffffffffffffffffffffffffffffffffffffff1614610f5457600080fd5b6000600660009054906101000a900473ffffffffffffffffffffffffffffffffffffffff1673ffffffffffffffffffffffffffffffffffffffff1647604051610f9c9061490b565b60006040518083038185875af1925050503d8060008114610fd9576040519150601f19603f3d011682016040523d82523d6000602084013e610fde565b606091505b5050905080610fec57600080fd5b50565b6060600d600083815260200190815260200160002080548060200260200160405190810160405280929190818152602001828054801561104e57602002820191906000526020600020905b81548152602001906001019080831161103a575b50505050509050919050565b61107583838360405180602001604052806000815250611c46565b505050565b600a6020528060005260406000206000915090508060000154908060010160009054906101000a900473ffffffffffffffffffffffffffffffffffffffff16908060020154908060030154908060040154908060050160009054906101000a900473ffffffffffffffffffffffffffffffffffffffff16908060050160149054906101000a900460ff16908060060180546111149061447f565b80601f01602080910402602001604051908101604052809291908181526020018280546111409061447f565b801561118d5780601f106111625761010080835404028352916020019161118d565b820191906000526020600020905b81548152906001019060200180831161117057829003601f168201915b5050505050905088565b6000806111a3836129b9565b9050600073ffffffffffffffffffffffffffffffffffffffff168173ffffffffffffffffffffffffffffffffffffffff1603611214576040517f08c379a000000000000000000000000000000000000000000000000000000000815260040161120b9061496c565b60405180910390fd5b80915050919050565b7f000000000000000000000000000000000000000000000000000000000000000081565b60008073ffffffffffffffffffffffffffffffffffffffff168273ffffffffffffffffffffffffffffffffffffffff16036112b1576040517f08c379a00000000000000000000000000000000000000000000000000000000081526004016112a8906149fe565b60405180910390fd5b600360008373ffffffffffffffffffffffffffffffffffffffff1673ffffffffffffffffffffffffffffffffffffffff168152602001908152602001600020549050919050565b611300613265565b600b600083815260200190815260200160002060405180610140016040529081600082015481526020016001820180546113399061447f565b80601f01602080910402602001604051908101604052809291908181526020018280546113659061447f565b80156113b25780601f10611387576101008083540402835291602001916113b2565b820191906000526020600020905b81548152906001019060200180831161139557829003601f168201915b505050505081526020016002820154815260200160038201548152602001600482015481526020016005820180546113e99061447f565b80601f01602080910402602001604051908101604052809291908181526020018280546114159061447f565b80156114625780601f1061143757610100808354040283529160200191611462565b820191906000526020600020905b81548152906001019060200180831161144557829003601f168201915b5050505050815260200160068201805461147b9061447f565b80601f01602080910402602001604051908101604052809291908181526020018280546114a79061447f565b80156114f45780601f106114c9576101008083540402835291602001916114f4565b820191906000526020600020905b8154815290600101906020018083116114d757829003601f168201915b5050505050815260200160078201805461150d9061447f565b80601f01602080910402602001604051908101604052809291908181526020018280546115399061447f565b80156115865780601f1061155b57610100808354040283529160200191611586565b820191906000526020600020905b81548152906001019060200180831161156957829003601f168201915b5050505050815260200160088201805461159f9061447f565b80601f01602080910402602001604051908101604052809291908181526020018280546115cb9061447f565b80156116185780601f106115ed57610100808354040283529160200191611618565b820191906000526020600020905b8154815290600101906020018083116115fb57829003601f168201915b505050505081526020016009820180546116319061447f565b80601f016020809104026020016040519081016040528092919081815260200182805461165d9061447f565b80156116aa5780601f1061167f576101008083540402835291602001916116aa565b820191906000526020600020905b81548152906001019060200180831161168d57829003601f168201915b5050505050815250509050919050565b600660009054906101000a900473ffffffffffffffffffffffffffffffffffffffff1673ffffffffffffffffffffffffffffffffffffffff163373ffffffffffffffffffffffffffffffffffffffff161461171457600080fd5b60008511611757576040517f08c379a000000000000000000000000000000000000000000000000000000000815260040161174e90614a6a565b60405180910390fd5b6007600081548092919061176a90614408565b91905055506040518061010001604052808981526020013073ffffffffffffffffffffffffffffffffffffffff168152602001878152602001868152602001858152602001600660009054906101000a900473ffffffffffffffffffffffffffffffffffffffff1673ffffffffffffffffffffffffffffffffffffffff16815260200160001515815260200182815250600a600060075481526020019081526020016000206000820151816000015560208201518160010160006101000a81548173ffffffffffffffffffffffffffffffffffffffff021916908373ffffffffffffffffffffffffffffffffffffffff16021790555060408201518160020155606082015181600301556080820151816004015560a08201518160050160006101000a81548173ffffffffffffffffffffffffffffffffffffffff021916908373ffffffffffffffffffffffffffffffffffffffff16021790555060c08201518160050160146101000a81548160ff02191690831515021790555060e08201518160060190816118fa9190614776565b50905050600660009054906101000a900473ffffffffffffffffffffffffffffffffffffffff1673ffffffffffffffffffffffffffffffffffffffff163073ffffffffffffffffffffffffffffffffffffffff167f408c2ed0ccf18167c46bb0f14a75ceba209620d477b47783af0eed23639694ce8a600a60006007548152602001908152602001600020600201548960405161199993929190614a8a565b60405180910390a35050505050505050565b7f000000000000000000000000000000000000000000000000000000000000000081565b600660009054906101000a900473ffffffffffffffffffffffffffffffffffffffff1681565b60085481565b606060018054611a0a9061447f565b80601f0160208091040260200160405190810160405280929190818152602001828054611a369061447f565b8015611a835780601f10611a5857610100808354040283529160200191611a83565b820191906000526020600020905b815481529060010190602001808311611a6657829003601f168201915b5050505050905090565b600e6020528160005260406000206020528060005260406000206000915091509054906101000a900460ff1681565b611ace611ac761256a565b83836129f6565b5050565b8060a0015173ffffffffffffffffffffffffffffffffffffffff163373ffffffffffffffffffffffffffffffffffffffff1614611b44576040517f08c379a0000000000000000000000000000000000000000000000000000000008152600401611b3b90614b0d565b60405180910390fd5b8060c0015115611b89576040517f08c379a0000000000000000000000000000000000000000000000000000000008152600401611b8090614b79565b60405180910390fd5b81600a600085815260200190815260200160002060030181905550611baf333085610e58565b3373ffffffffffffffffffffffffffffffffffffffff168160a0015173ffffffffffffffffffffffffffffffffffffffff16826020015173ffffffffffffffffffffffffffffffffffffffff167f8b4c9c8a607d67b321582dd8461041b1dc2ceeca70c8b7f37f8e02095cf2e76d60075485604001518660600151604051611c3993929190614a8a565b60405180910390a4505050565b611c57611c5161256a565b8361262b565b611c96576040517f08c379a0000000000000000000000000000000000000000000000000000000008152600401611c8d906148ba565b60405180910390fd5b611ca284848484612b62565b50505050565b6000611cb38261208a565b90506000600a60008481526020019081526020016000209050600083118015611cde57506007548311155b611d1d576040517f08c379a0000000000000000000000000000000000000000000000000000000008152600401611d1490614be5565b60405180910390fd5b81341015611d60576040517f08c379a0000000000000000000000000000000000000000000000000000000008152600401611d5790614c77565b60405180910390fd5b8060050160149054906101000a900460ff1615611db2576040517f08c379a0000000000000000000000000000000000000000000000000000000008152600401611da990614ce3565b60405180910390fd5b8060050160009054906101000a900473ffffffffffffffffffffffffffffffffffffffff1673ffffffffffffffffffffffffffffffffffffffff166108fc82600301549081150290604051600060405180830381858888f19350505050158015611e20573d6000803e3d6000fd5b507f000000000000000000000000000000000000000000000000000000000000000073ffffffffffffffffffffffffffffffffffffffff166108fc826003015484611e6b91906143d4565b9081150290604051600060405180830381858888f19350505050158015611e96573d6000803e3d6000fd5b5060018160050160146101000a81548160ff0219169083151502179055508060010160009054906101000a900473ffffffffffffffffffffffffffffffffffffffff1673ffffffffffffffffffffffffffffffffffffffff166323b872dd303384600201546040518463ffffffff1660e01b8152600401611f1993929190614d03565b600060405180830381600087803b158015611f3357600080fd5b505af1158015611f47573d6000803e3d6000fd5b505050503373ffffffffffffffffffffffffffffffffffffffff168160050160009054906101000a900473ffffffffffffffffffffffffffffffffffffffff1673ffffffffffffffffffffffffffffffffffffffff168260010160009054906101000a900473ffffffffffffffffffffffffffffffffffffffff1673ffffffffffffffffffffffffffffffffffffffff167f8b4c9c8a607d67b321582dd8461041b1dc2ceeca70c8b7f37f8e02095cf2e76d6007548560020154866003015460405161201593929190614a8a565b60405180910390a4505050565b606061202d8261251f565b6000612037612bbe565b905060008151116120575760405180602001604052806000815250612082565b8061206184612bd5565b604051602001612072929190614d76565b6040516020818303038152906040525b915050919050565b600060647f000000000000000000000000000000000000000000000000000000000000000060646120bb9190614d9a565b600a6000858152602001908152602001600020600301546120dc9190614dce565b6120e69190614e3f565b9050919050565b606060008211801561210157506008548211155b612140576040517f08c379a000000000000000000000000000000000000000000000000000000000815260040161213790614ebc565b60405180910390fd5b600080600190505b60075481116121905783600a6000838152602001908152602001600020600401540361217d57818061217990614408565b9250505b808061218890614408565b915050612148565b5060008167ffffffffffffffff8111156121ad576121ac613634565b5b6040519080825280602002602001820160405280156121e657816020015b6121d36132b8565b8152602001906001900390816121cb5790505b509050600080600190505b60075481116123f75785600a600083815260200190815260200160002060040154036123e457600a600082815260200190815260200160002060405180610100016040529081600082015481526020016001820160009054906101000a900473ffffffffffffffffffffffffffffffffffffffff1673ffffffffffffffffffffffffffffffffffffffff1673ffffffffffffffffffffffffffffffffffffffff1681526020016002820154815260200160038201548152602001600482015481526020016005820160009054906101000a900473ffffffffffffffffffffffffffffffffffffffff1673ffffffffffffffffffffffffffffffffffffffff1673ffffffffffffffffffffffffffffffffffffffff1681526020016005820160149054906101000a900460ff161515151581526020016006820180546123359061447f565b80601f01602080910402602001604051908101604052809291908181526020018280546123619061447f565b80156123ae5780601f10612383576101008083540402835291602001916123ae565b820191906000526020600020905b81548152906001019060200180831161239157829003601f168201915b5050505050815250508383815181106123ca576123c9614edc565b5b602002602001018190525081806123e090614408565b9250505b80806123ef90614408565b9150506121f1565b50819350505050919050565b6000600560008473ffffffffffffffffffffffffffffffffffffffff1673ffffffffffffffffffffffffffffffffffffffff16815260200190815260200160002060008373ffffffffffffffffffffffffffffffffffffffff1673ffffffffffffffffffffffffffffffffffffffff16815260200190815260200160002060009054906101000a900460ff16905092915050565b60007f01ffc9a7000000000000000000000000000000000000000000000000000000007bffffffffffffffffffffffffffffffffffffffffffffffffffffffff1916827bffffffffffffffffffffffffffffffffffffffffffffffffffffffff1916149050919050565b61251b828260405180602001604052806000815250612ca3565b5050565b61252881612cfe565b612567576040517f08c379a000000000000000000000000000000000000000000000000000000000815260040161255e9061496c565b60405180910390fd5b50565b600033905090565b816004600083815260200190815260200160002060006101000a81548173ffffffffffffffffffffffffffffffffffffffff021916908373ffffffffffffffffffffffffffffffffffffffff160217905550808273ffffffffffffffffffffffffffffffffffffffff166125e583611197565b73ffffffffffffffffffffffffffffffffffffffff167f8c5be1e5ebec7d5bd14f71427d1e84f3dd0314c0f7b2291e5b200ac8c7c3b92560405160405180910390a45050565b60008061263783611197565b90508073ffffffffffffffffffffffffffffffffffffffff168473ffffffffffffffffffffffffffffffffffffffff16148061267957506126788185612403565b5b806126b757508373ffffffffffffffffffffffffffffffffffffffff1661269f84610b6b565b73ffffffffffffffffffffffffffffffffffffffff16145b91505092915050565b8273ffffffffffffffffffffffffffffffffffffffff166126e082611197565b73ffffffffffffffffffffffffffffffffffffffff1614612736576040517f08c379a000000000000000000000000000000000000000000000000000000000815260040161272d90614f7d565b60405180910390fd5b600073ffffffffffffffffffffffffffffffffffffffff168273ffffffffffffffffffffffffffffffffffffffff16036127a5576040517f08c379a000000000000000000000000000000000000000000000000000000000815260040161279c9061500f565b60405180910390fd5b6127b28383836001612d3f565b8273ffffffffffffffffffffffffffffffffffffffff166127d282611197565b73ffffffffffffffffffffffffffffffffffffffff1614612828576040517f08c379a000000000000000000000000000000000000000000000000000000000815260040161281f90614f7d565b60405180910390fd5b6004600082815260200190815260200160002060006101000a81549073ffffffffffffffffffffffffffffffffffffffff02191690556001600360008573ffffffffffffffffffffffffffffffffffffffff1673ffffffffffffffffffffffffffffffffffffffff168152602001908152602001600020600082825403925050819055506001600360008473ffffffffffffffffffffffffffffffffffffffff1673ffffffffffffffffffffffffffffffffffffffff16815260200190815260200160002060008282540192505081905550816002600083815260200190815260200160002060006101000a81548173ffffffffffffffffffffffffffffffffffffffff021916908373ffffffffffffffffffffffffffffffffffffffff160217905550808273ffffffffffffffffffffffffffffffffffffffff168473ffffffffffffffffffffffffffffffffffffffff167fddf252ad1be2c89b69c2b068fc378daa952ba7f163c4a11628f55a4df523b3ef60405160405180910390a46129b48383836001612d45565b505050565b60006002600083815260200190815260200160002060009054906101000a900473ffffffffffffffffffffffffffffffffffffffff169050919050565b8173ffffffffffffffffffffffffffffffffffffffff168373ffffffffffffffffffffffffffffffffffffffff1603612a64576040517f08c379a0000000000000000000000000000000000000000000000000000000008152600401612a5b9061507b565b60405180910390fd5b80600560008573ffffffffffffffffffffffffffffffffffffffff1673ffffffffffffffffffffffffffffffffffffffff16815260200190815260200160002060008473ffffffffffffffffffffffffffffffffffffffff1673ffffffffffffffffffffffffffffffffffffffff16815260200190815260200160002060006101000a81548160ff0219169083151502179055508173ffffffffffffffffffffffffffffffffffffffff168373ffffffffffffffffffffffffffffffffffffffff167f17307eab39ab6107e8899845ad3d59bd9653f200f220920489ca2b5937696c3183604051612b5591906133df565b60405180910390a3505050565b612b6d8484846126c0565b612b7984848484612d4b565b612bb8576040517f08c379a0000000000000000000000000000000000000000000000000000000008152600401612baf9061510d565b60405180910390fd5b50505050565b606060405180602001604052806000815250905090565b606060006001612be484612ed2565b01905060008167ffffffffffffffff811115612c0357612c02613634565b5b6040519080825280601f01601f191660200182016040528015612c355781602001600182028036833780820191505090505b509050600082602001820190505b600115612c98578080600190039150507f3031323334353637383961626364656600000000000000000000000000000000600a86061a8153600a8581612c8c57612c8b614e10565b5b04945060008503612c43575b819350505050919050565b612cad8383613025565b612cba6000848484612d4b565b612cf9576040517f08c379a0000000000000000000000000000000000000000000000000000000008152600401612cf09061510d565b60405180910390fd5b505050565b60008073ffffffffffffffffffffffffffffffffffffffff16612d20836129b9565b73ffffffffffffffffffffffffffffffffffffffff1614159050919050565b50505050565b50505050565b6000612d6c8473ffffffffffffffffffffffffffffffffffffffff16613242565b15612ec5578373ffffffffffffffffffffffffffffffffffffffff1663150b7a02612d9561256a565b8786866040518563ffffffff1660e01b8152600401612db79493929190615182565b6020604051808303816000875af1925050508015612df357506040513d601f19601f82011682018060405250810190612df091906151e3565b60015b612e75573d8060008114612e23576040519150601f19603f3d011682016040523d82523d6000602084013e612e28565b606091505b506000815103612e6d576040517f08c379a0000000000000000000000000000000000000000000000000000000008152600401612e649061510d565b60405180910390fd5b805181602001fd5b63150b7a0260e01b7bffffffffffffffffffffffffffffffffffffffffffffffffffffffff1916817bffffffffffffffffffffffffffffffffffffffffffffffffffffffff191614915050612eca565b600190505b949350505050565b600080600090507a184f03e93ff9f4daa797ed6e38ed64bf6a1f0100000000000000008310612f30577a184f03e93ff9f4daa797ed6e38ed64bf6a1f0100000000000000008381612f2657612f25614e10565b5b0492506040810190505b6d04ee2d6d415b85acef81000000008310612f6d576d04ee2d6d415b85acef81000000008381612f6357612f62614e10565b5b0492506020810190505b662386f26fc100008310612f9c57662386f26fc100008381612f9257612f91614e10565b5b0492506010810190505b6305f5e1008310612fc5576305f5e1008381612fbb57612fba614e10565b5b0492506008810190505b6127108310612fea576127108381612fe057612fdf614e10565b5b0492506004810190505b6064831061300d576064838161300357613002614e10565b5b0492506002810190505b600a831061301c576001810190505b80915050919050565b600073ffffffffffffffffffffffffffffffffffffffff168273ffffffffffffffffffffffffffffffffffffffff1603613094576040517f08c379a000000000000000000000000000000000000000000000000000000000815260040161308b9061525c565b60405180910390fd5b61309d81612cfe565b156130dd576040517f08c379a00000000000000000000000000000000000000000000000000000000081526004016130d4906152c8565b60405180910390fd5b6130eb600083836001612d3f565b6130f481612cfe565b15613134576040517f08c379a000000000000000000000000000000000000000000000000000000000815260040161312b906152c8565b60405180910390fd5b6001600360008473ffffffffffffffffffffffffffffffffffffffff1673ffffffffffffffffffffffffffffffffffffffff16815260200190815260200160002060008282540192505081905550816002600083815260200190815260200160002060006101000a81548173ffffffffffffffffffffffffffffffffffffffff021916908373ffffffffffffffffffffffffffffffffffffffff160217905550808273ffffffffffffffffffffffffffffffffffffffff16600073ffffffffffffffffffffffffffffffffffffffff167fddf252ad1be2c89b69c2b068fc378daa952ba7f163c4a11628f55a4df523b3ef60405160405180910390a461323e600083836001612d45565b5050565b6000808273ffffffffffffffffffffffffffffffffffffffff163b119050919050565b604051806101400160405280600081526020016060815260200160008152602001600081526020016000815260200160608152602001606081526020016060815260200160608152602001606081525090565b60405180610100016040528060008152602001600073ffffffffffffffffffffffffffffffffffffffff168152602001600081526020016000815260200160008152602001600073ffffffffffffffffffffffffffffffffffffffff168152602001600015158152602001606081525090565b6000604051905090565b600080fd5b600080fd5b60007fffffffff0000000000000000000000000000000000000000000000000000000082169050919050565b6133748161333f565b811461337f57600080fd5b50565b6000813590506133918161336b565b92915050565b6000602082840312156133ad576133ac613335565b5b60006133bb84828501613382565b91505092915050565b60008115159050919050565b6133d9816133c4565b82525050565b60006020820190506133f460008301846133d0565b92915050565b6000819050919050565b61340d816133fa565b811461341857600080fd5b50565b60008135905061342a81613404565b92915050565b60008060006060848603121561344957613448613335565b5b60006134578682870161341b565b93505060206134688682870161341b565b92505060406134798682870161341b565b9150509250925092565b600081519050919050565b600082825260208201905092915050565b60005b838110156134bd5780820151818401526020810190506134a2565b60008484015250505050565b6000601f19601f8301169050919050565b60006134e582613483565b6134ef818561348e565b93506134ff81856020860161349f565b613508816134c9565b840191505092915050565b6000602082019050818103600083015261352d81846134da565b905092915050565b60006020828403121561354b5761354a613335565b5b60006135598482850161341b565b91505092915050565b600073ffffffffffffffffffffffffffffffffffffffff82169050919050565b600061358d82613562565b9050919050565b61359d81613582565b82525050565b60006020820190506135b86000830184613594565b92915050565b6135c781613582565b81146135d257600080fd5b50565b6000813590506135e4816135be565b92915050565b6000806040838503121561360157613600613335565b5b600061360f858286016135d5565b92505060206136208582860161341b565b9150509250929050565b600080fd5b600080fd5b7f4e487b7100000000000000000000000000000000000000000000000000000000600052604160045260246000fd5b61366c826134c9565b810181811067ffffffffffffffff8211171561368b5761368a613634565b5b80604052505050565b600061369e61332b565b90506136aa8282613663565b919050565b600067ffffffffffffffff8211156136ca576136c9613634565b5b6136d3826134c9565b9050602081019050919050565b82818337600083830152505050565b60006137026136fd846136af565b613694565b90508281526020810184848401111561371e5761371d61362f565b5b6137298482856136e0565b509392505050565b600082601f8301126137465761374561362a565b5b81356137568482602086016136ef565b91505092915050565b6000806000806000806000806000806101408b8d03121561378357613782613335565b5b60006137918d828e0161341b565b9a505060208b013567ffffffffffffffff8111156137b2576137b161333a565b5b6137be8d828e01613731565b99505060406137cf8d828e0161341b565b98505060606137e08d828e0161341b565b97505060806137f18d828e0161341b565b96505060a08b013567ffffffffffffffff8111156138125761381161333a565b5b61381e8d828e01613731565b95505060c08b013567ffffffffffffffff81111561383f5761383e61333a565b5b61384b8d828e01613731565b94505060e08b013567ffffffffffffffff81111561386c5761386b61333a565b5b6138788d828e01613731565b9350506101008b013567ffffffffffffffff81111561389a5761389961333a565b5b6138a68d828e01613731565b9250506101208b013567ffffffffffffffff8111156138c8576138c761333a565b5b6138d48d828e01613731565b9150509295989b9194979a5092959850565b6138ef816133fa565b82525050565b600060208201905061390a60008301846138e6565b92915050565b60008060006060848603121561392957613928613335565b5b6000613937868287016135d5565b9350506020613948868287016135d5565b92505060406139598682870161341b565b9150509250925092565b6000806040838503121561397a57613979613335565b5b60006139888582860161341b565b92505060206139998582860161341b565b9150509250929050565b600081519050919050565b600082825260208201905092915050565b6000819050602082019050919050565b6139d8816133fa565b82525050565b60006139ea83836139cf565b60208301905092915050565b6000602082019050919050565b6000613a0e826139a3565b613a1881856139ae565b9350613a23836139bf565b8060005b83811015613a54578151613a3b88826139de565b9750613a46836139f6565b925050600181019050613a27565b5085935050505092915050565b60006020820190508181036000830152613a7b8184613a03565b905092915050565b6000819050919050565b6000613aa8613aa3613a9e84613562565b613a83565b613562565b9050919050565b6000613aba82613a8d565b9050919050565b6000613acc82613aaf565b9050919050565b613adc81613ac1565b82525050565b6000613aed82613562565b9050919050565b613afd81613ae2565b82525050565b600061010082019050613b19600083018b6138e6565b613b26602083018a613ad3565b613b3360408301896138e6565b613b4060608301886138e6565b613b4d60808301876138e6565b613b5a60a0830186613af4565b613b6760c08301856133d0565b81810360e0830152613b7981846134da565b90509998505050505050505050565b6000602082019050613b9d6000830184613af4565b92915050565b600060208284031215613bb957613bb8613335565b5b6000613bc7848285016135d5565b91505092915050565b600082825260208201905092915050565b6000613bec82613483565b613bf68185613bd0565b9350613c0681856020860161349f565b613c0f816134c9565b840191505092915050565b600061014083016000830151613c3360008601826139cf565b5060208301518482036020860152613c4b8282613be1565b9150506040830151613c6060408601826139cf565b506060830151613c7360608601826139cf565b506080830151613c8660808601826139cf565b5060a083015184820360a0860152613c9e8282613be1565b91505060c083015184820360c0860152613cb88282613be1565b91505060e083015184820360e0860152613cd28282613be1565b915050610100830151848203610100860152613cee8282613be1565b915050610120830151848203610120860152613d0a8282613be1565b9150508091505092915050565b60006020820190508181036000830152613d318184613c1a565b905092915050565b6000613d4482613582565b9050919050565b613d5481613d39565b8114613d5f57600080fd5b50565b600081359050613d7181613d4b565b92915050565b613d80816133c4565b8114613d8b57600080fd5b50565b600081359050613d9d81613d77565b92915050565b600080600080600080600080610100898b031215613dc457613dc3613335565b5b6000613dd28b828c0161341b565b9850506020613de38b828c01613d62565b9750506040613df48b828c0161341b565b9650506060613e058b828c0161341b565b9550506080613e168b828c0161341b565b94505060a0613e278b828c016135d5565b93505060c0613e388b828c01613d8e565b92505060e089013567ffffffffffffffff811115613e5957613e5861333a565b5b613e658b828c01613731565b9150509295985092959890939650565b60008060408385031215613e8c57613e8b613335565b5b6000613e9a8582860161341b565b9250506020613eab858286016135d5565b9150509250929050565b60008060408385031215613ecc57613ecb613335565b5b6000613eda858286016135d5565b9250506020613eeb85828601613d8e565b9150509250929050565b600080fd5b600080fd5b613f0881613ae2565b8114613f1357600080fd5b50565b600081359050613f2581613eff565b92915050565b60006101008284031215613f4257613f41613ef5565b5b613f4d610100613694565b90506000613f5d8482850161341b565b6000830152506020613f7184828501613d62565b6020830152506040613f858482850161341b565b6040830152506060613f998482850161341b565b6060830152506080613fad8482850161341b565b60808301525060a0613fc184828501613f16565b60a08301525060c0613fd584828501613d8e565b60c08301525060e082013567ffffffffffffffff811115613ff957613ff8613efa565b5b61400584828501613731565b60e08301525092915050565b60008060006060848603121561402a57614029613335565b5b60006140388682870161341b565b93505060206140498682870161341b565b925050604084013567ffffffffffffffff81111561406a5761406961333a565b5b61407686828701613f2b565b9150509250925092565b600067ffffffffffffffff82111561409b5761409a613634565b5b6140a4826134c9565b9050602081019050919050565b60006140c46140bf84614080565b613694565b9050828152602081018484840111156140e0576140df61362f565b5b6140eb8482856136e0565b509392505050565b600082601f8301126141085761410761362a565b5b81356141188482602086016140b1565b91505092915050565b6000806000806080858703121561413b5761413a613335565b5b6000614149878288016135d5565b945050602061415a878288016135d5565b935050604061416b8782880161341b565b925050606085013567ffffffffffffffff81111561418c5761418b61333a565b5b614198878288016140f3565b91505092959194509250565b600081519050919050565b600082825260208201905092915050565b6000819050602082019050919050565b6141d981613ac1565b82525050565b6141e881613ae2565b82525050565b6141f7816133c4565b82525050565b60006101008301600083015161421660008601826139cf565b50602083015161422960208601826141d0565b50604083015161423c60408601826139cf565b50606083015161424f60608601826139cf565b50608083015161426260808601826139cf565b5060a083015161427560a08601826141df565b5060c083015161428860c08601826141ee565b5060e083015184820360e08601526142a08282613be1565b9150508091505092915050565b60006142b983836141fd565b905092915050565b6000602082019050919050565b60006142d9826141a4565b6142e381856141af565b9350836020820285016142f5856141c0565b8060005b85811015614331578484038952815161431285826142ad565b945061431d836142c1565b925060208a019950506001810190506142f9565b50829750879550505050505092915050565b6000602082019050818103600083015261435d81846142ce565b905092915050565b6000806040838503121561437c5761437b613335565b5b600061438a858286016135d5565b925050602061439b858286016135d5565b9150509250929050565b7f4e487b7100000000000000000000000000000000000000000000000000000000600052601160045260246000fd5b60006143df826133fa565b91506143ea836133fa565b9250828203905081811115614402576144016143a5565b5b92915050565b6000614413826133fa565b91507fffffffffffffffffffffffffffffffffffffffffffffffffffffffffffffffff8203614445576144446143a5565b5b600182019050919050565b7f4e487b7100000000000000000000000000000000000000000000000000000000600052602260045260246000fd5b6000600282049050600182168061449757607f821691505b6020821081036144aa576144a9614450565b5b50919050565b7f4552433732313a20617070726f76616c20746f2063757272656e74206f776e6560008201527f7200000000000000000000000000000000000000000000000000000000000000602082015250565b600061450c60218361348e565b9150614517826144b0565b604082019050919050565b6000602082019050818103600083015261453b816144ff565b9050919050565b7f4552433732313a20617070726f76652063616c6c6572206973206e6f7420746f60008201527f6b656e206f776e6572206f7220617070726f76656420666f7220616c6c000000602082015250565b600061459e603d8361348e565b91506145a982614542565b604082019050919050565b600060208201905081810360008301526145cd81614591565b9050919050565b60008190508160005260206000209050919050565b60006020601f8301049050919050565b600082821b905092915050565b6000600883026146367fffffffffffffffffffffffffffffffffffffffffffffffffffffffffffffffff826145f9565b61464086836145f9565b95508019841693508086168417925050509392505050565b600061467361466e614669846133fa565b613a83565b6133fa565b9050919050565b6000819050919050565b61468d83614658565b6146a16146998261467a565b848454614606565b825550505050565b600090565b6146b66146a9565b6146c1818484614684565b505050565b5b818110156146e5576146da6000826146ae565b6001810190506146c7565b5050565b601f82111561472a576146fb816145d4565b614704846145e9565b81016020851015614713578190505b61472761471f856145e9565b8301826146c6565b50505b505050565b600082821c905092915050565b600061474d6000198460080261472f565b1980831691505092915050565b6000614766838361473c565b9150826002028217905092915050565b61477f82613483565b67ffffffffffffffff81111561479857614797613634565b5b6147a2825461447f565b6147ad8282856146e9565b600060209050601f8311600181146147e057600084156147ce578287015190505b6147d8858261475a565b865550614840565b601f1984166147ee866145d4565b60005b82811015614816578489015182556001820191506020850194506020810190506147f1565b86831015614833578489015161482f601f89168261473c565b8355505b6001600288020188555050505b505050505050565b7f4552433732313a2063616c6c6572206973206e6f7420746f6b656e206f776e6560008201527f72206f7220617070726f76656400000000000000000000000000000000000000602082015250565b60006148a4602d8361348e565b91506148af82614848565b604082019050919050565b600060208201905081810360008301526148d381614897565b9050919050565b600081905092915050565b50565b60006148f56000836148da565b9150614900826148e5565b600082019050919050565b6000614916826148e8565b9150819050919050565b7f4552433732313a20696e76616c696420746f6b656e2049440000000000000000600082015250565b600061495660188361348e565b915061496182614920565b602082019050919050565b6000602082019050818103600083015261498581614949565b9050919050565b7f4552433732313a2061646472657373207a65726f206973206e6f74206120766160008201527f6c6964206f776e65720000000000000000000000000000000000000000000000602082015250565b60006149e860298361348e565b91506149f38261498c565b604082019050919050565b60006020820190508181036000830152614a17816149db565b9050919050565b7f5072696365206d7573742062652067726561746572207468616e207a65726f00600082015250565b6000614a54601f8361348e565b9150614a5f82614a1e565b602082019050919050565b60006020820190508181036000830152614a8381614a47565b9050919050565b6000606082019050614a9f60008301866138e6565b614aac60208301856138e6565b614ab960408301846138e6565b949350505050565b7f596f7520646f206e6f74206f776e2074686973207469636b6574000000000000600082015250565b6000614af7601a8361348e565b9150614b0282614ac1565b602082019050919050565b60006020820190508181036000830152614b2681614aea565b9050919050565b7f5469636b65742068617320616c7265616479206265656e20736f6c6400000000600082015250565b6000614b63601c8361348e565b9150614b6e82614b2d565b602082019050919050565b60006020820190508181036000830152614b9281614b56565b9050919050565b7f5469636b657420646f65736e2774206578697374000000000000000000000000600082015250565b6000614bcf60148361348e565b9150614bda82614b99565b602082019050919050565b60006020820190508181036000830152614bfe81614bc2565b9050919050565b7f6e6f7420656e6f75676820657468657220746f20636f766572207469636b657460008201527f20707269636520616e64206d61726b6574206665650000000000000000000000602082015250565b6000614c6160358361348e565b9150614c6c82614c05565b604082019050919050565b60006020820190508181036000830152614c9081614c54565b9050919050565b7f7469636b657420616c726561647920736f6c6400000000000000000000000000600082015250565b6000614ccd60138361348e565b9150614cd882614c97565b602082019050919050565b60006020820190508181036000830152614cfc81614cc0565b9050919050565b6000606082019050614d186000830186613594565b614d256020830185613594565b614d3260408301846138e6565b949350505050565b600081905092915050565b6000614d5082613483565b614d5a8185614d3a565b9350614d6a81856020860161349f565b80840191505092915050565b6000614d828285614d45565b9150614d8e8284614d45565b91508190509392505050565b6000614da5826133fa565b9150614db0836133fa565b9250828201905080821115614dc857614dc76143a5565b5b92915050565b6000614dd9826133fa565b9150614de4836133fa565b9250828202614df2816133fa565b91508282048414831517614e0957614e086143a5565b5b5092915050565b7f4e487b7100000000000000000000000000000000000000000000000000000000600052601260045260246000fd5b6000614e4a826133fa565b9150614e55836133fa565b925082614e6557614e64614e10565b5b828204905092915050565b7f496e76616c6964206f63636173696f6e49640000000000000000000000000000600082015250565b6000614ea660128361348e565b9150614eb182614e70565b602082019050919050565b60006020820190508181036000830152614ed581614e99565b9050919050565b7f4e487b7100000000000000000000000000000000000000000000000000000000600052603260045260246000fd5b7f4552433732313a207472616e736665722066726f6d20696e636f72726563742060008201527f6f776e6572000000000000000000000000000000000000000000000000000000602082015250565b6000614f6760258361348e565b9150614f7282614f0b565b604082019050919050565b60006020820190508181036000830152614f9681614f5a565b9050919050565b7f4552433732313a207472616e7366657220746f20746865207a65726f2061646460008201527f7265737300000000000000000000000000000000000000000000000000000000602082015250565b6000614ff960248361348e565b915061500482614f9d565b604082019050919050565b6000602082019050818103600083015261502881614fec565b9050919050565b7f4552433732313a20617070726f766520746f2063616c6c657200000000000000600082015250565b600061506560198361348e565b91506150708261502f565b602082019050919050565b6000602082019050818103600083015261509481615058565b9050919050565b7f4552433732313a207472616e7366657220746f206e6f6e20455243373231526560008201527f63656976657220696d706c656d656e7465720000000000000000000000000000602082015250565b60006150f760328361348e565b91506151028261509b565b604082019050919050565b60006020820190508181036000830152615126816150ea565b9050919050565b600081519050919050565b600082825260208201905092915050565b60006151548261512d565b61515e8185615138565b935061516e81856020860161349f565b615177816134c9565b840191505092915050565b60006080820190506151976000830187613594565b6151a46020830186613594565b6151b160408301856138e6565b81810360608301526151c38184615149565b905095945050505050565b6000815190506151dd8161336b565b92915050565b6000602082840312156151f9576151f8613335565b5b6000615207848285016151ce565b91505092915050565b7f4552433732313a206d696e7420746f20746865207a65726f2061646472657373600082015250565b600061524660208361348e565b915061525182615210565b602082019050919050565b6000602082019050818103600083015261527581615239565b9050919050565b7f4552433732313a20746f6b656e20616c7265616479206d696e74656400000000600082015250565b60006152b2601c8361348e565b91506152bd8261527c565b602082019050919050565b600060208201905081810360008301526152e1816152a5565b905091905056fea2646970667358221220d24e8952ec7bb404ccb83ca4d6271d0e7d2f29991a31d17c56159c94861d459264736f6c63430008110033",
  "linkReferences": {},
  "deployedLinkReferences": {}
}